{"contracts/BurnBoostToken.sol":{"BurnBoostToken":{"abi":[{"inputs":[{"internalType":"string","name":"_name","type":"string"},{"internalType":"string","name":"_symbol","type":"string"},{"internalType":"uint256","name":"_supply","type":"uint256"},{"internalType":"uint256","name":"_baseMarketCap","type":"uint256"}],"stateMutability":"nonpayable","type":"constructor"},{"anonymous":false,"inputs":[{"indexed":true,"internalType":"address","name":"owner","type":"address"},{"indexed":true,"internalType":"address","name":"spender","type":"address"},{"indexed":false,"internalType":"uint256","name":"value","type":"uint256"}],"name":"Approval","type":"event"},{"anonymous":false,"inputs":[{"indexed":false,"internalType":"uint256","name":"oldMultiplier","type":"uint256"},{"indexed":false,"internalType":"uint256","name":"newMultiplier","type":"uint256"},{"indexed":false,"internalType":"uint256","name":"percentageBurned","type":"uint256"}],"name":"MarketCapBoosted","type":"event"},{"anonymous":false,"inputs":[{"indexed":true,"internalType":"address","name":"burner","type":"address"},{"indexed":false,"internalType":"uint256","name":"amount","type":"uint256"},{"indexed":false,"internalType":"uint256","name":"newMarketCapMultiplier","type":"uint256"}],"name":"TokensBurned","type":"event"},{"anonymous":false,"inputs":[{"indexed":true,"internalType":"address","name":"from","type":"address"},{"indexed":true,"internalType":"address","name":"to","type":"address"},{"indexed":false,"internalType":"uint256","name":"value","type":"uint256"}],"name":"Transfer","type":"event"},{"inputs":[],"name":"BOOST_FACTOR","outputs":[{"internalType":"uint256","name":"","type":"uint256"}],"stateMutability":"view","type":"function"},{"inputs":[],"name":"MAX_BOOST","outputs":[{"internalType":"uint256","name":"","type":"uint256"}],"stateMutability":"view","type":"function"},{"inputs":[{"internalType":"address","name":"owner","type":"address"},{"internalType":"address","name":"spender","type":"address"}],"name":"allowance","outputs":[{"internalType":"uint256","name":"","type":"uint256"}],"stateMutability":"view","type":"function"},{"inputs":[{"internalType":"address","name":"spender","type":"address"},{"internalType":"uint256","name":"amount","type":"uint256"}],"name":"approve","outputs":[{"internalType":"bool","name":"","type":"bool"}],"stateMutability":"nonpayable","type":"function"},{"inputs":[{"internalType":"address","name":"account","type":"address"}],"name":"balanceOf","outputs":[{"internalType":"uint256","name":"","type":"uint256"}],"stateMutability":"view","type":"function"},{"inputs":[],"name":"baseMarketCap","outputs":[{"internalType":"uint256","name":"","type":"uint256"}],"stateMutability":"view","type":"function"},{"inputs":[{"internalType":"uint256","name":"amount","type":"uint256"}],"name":"burn","outputs":[{"internalType":"bool","name":"","type":"bool"}],"stateMutability":"nonpayable","type":"function"},{"inputs":[],"name":"burnTransactionCount","outputs":[{"internalType":"uint256","name":"","type":"uint256"}],"stateMutability":"view","type":"function"},{"inputs":[{"internalType":"uint256","name":"burnAmount","type":"uint256"}],"name":"calculateBoostFromBurn","outputs":[{"internalType":"uint256","name":"newBoostPercentage","type":"uint256"}],"stateMutability":"view","type":"function"},{"inputs":[],"name":"currentBoostMultiplier","outputs":[{"internalType":"uint256","name":"","type":"uint256"}],"stateMutability":"view","type":"function"},{"inputs":[],"name":"decimals","outputs":[{"internalType":"uint8","name":"","type":"uint8"}],"stateMutability":"view","type":"function"},{"inputs":[],"name":"getBoostPercentage","outputs":[{"internalType":"uint256","name":"","type":"uint256"}],"stateMutability":"view","type":"function"},{"inputs":[],"name":"getBurnedPercentage","outputs":[{"internalType":"uint256","name":"","type":"uint256"}],"stateMutability":"view","type":"function"},{"inputs":[],"name":"getCurrentMarketCap","outputs":[{"internalType":"uint256","name":"","type":"uint256"}],"stateMutability":"view","type":"function"},{"inputs":[],"name":"getRemainingSupplyPercentage","outputs":[{"internalType":"uint256","name":"","type":"uint256"}],"stateMutability":"view","type":"function"},{"inputs":[],"name":"getTokenStats","outputs":[{"internalType":"uint256","name":"initialSupply","type":"uint256"},{"internalType":"uint256","name":"currentSupply","type":"uint256"},{"internalType":"uint256","name":"burned","type":"uint256"},{"internalType":"uint256","name":"burnedPercentage","type":"uint256"},{"internalType":"uint256","name":"marketCap","type":"uint256"},{"internalType":"uint256","name":"boostPercentage","type":"uint256"},{"internalType":"uint256","name":"burnTxCount","type":"uint256"}],"stateMutability":"view","type":"function"},{"inputs":[],"name":"name","outputs":[{"internalType":"string","name":"","type":"string"}],"stateMutability":"view","type":"function"},{"inputs":[],"name":"symbol","outputs":[{"internalType":"string","name":"","type":"string"}],"stateMutability":"view","type":"function"},{"inputs":[],"name":"totalBurned","outputs":[{"internalType":"uint256","name":"","type":"uint256"}],"stateMutability":"view","type":"function"},{"inputs":[],"name":"totalSupply","outputs":[{"internalType":"uint256","name":"","type":"uint256"}],"stateMutability":"view","type":"function"},{"inputs":[{"internalType":"address","name":"recipient","type":"address"},{"internalType":"uint256","name":"amount","type":"uint256"}],"name":"transfer","outputs":[{"internalType":"bool","name":"","type":"bool"}],"stateMutability":"nonpayable","type":"function"},{"inputs":[{"internalType":"address","name":"sender","type":"address"},{"internalType":"address","name":"recipient","type":"address"},{"internalType":"uint256","name":"amount","type":"uint256"}],"name":"transferFrom","outputs":[{"internalType":"bool","name":"","type":"bool"}],"stateMutability":"nonpayable","type":"function"},{"inputs":[{"internalType":"address","name":"","type":"address"}],"name":"userBurnedAmount","outputs":[{"internalType":"uint256","name":"","type":"uint256"}],"stateMutability":"view","type":"function"}],"evm":{"bytecode":{"linkReferences":{},"object":"60806040523480156200001157600080fd5b506040516200121c3803806200121c8339810160408190526200003491620001a5565b6005620000428582620002ae565b506006620000518482620002ae565b506007805460ff191660129081179091556200006f90600a6200048f565b6200007b9083620004a4565b6002819055600381905533600081815260208181526040808320859055600886905561271060095551938452919290917fddf252ad1be2c89b69c2b068fc378daa952ba7f163c4a11628f55a4df523b3ef910160405180910390a350505050620004be565b634e487b7160e01b600052604160045260246000fd5b600082601f8301126200010857600080fd5b81516001600160401b0380821115620001255762000125620000e0565b604051601f8301601f19908116603f01168101908282118183101715620001505762000150620000e0565b816040528381526020925086838588010111156200016d57600080fd5b600091505b8382101562000191578582018301518183018401529082019062000172565b600093810190920192909252949350505050565b60008060008060808587031215620001bc57600080fd5b84516001600160401b0380821115620001d457600080fd5b620001e288838901620000f6565b95506020870151915080821115620001f957600080fd5b506200020887828801620000f6565b604087015160609097015195989097509350505050565b600181811c908216806200023457607f821691505b6020821081036200025557634e487b7160e01b600052602260045260246000fd5b50919050565b601f821115620002a957600081815260208120601f850160051c81016020861015620002845750805b601f850160051c820191505b81811015620002a55782815560010162000290565b5050505b505050565b81516001600160401b03811115620002ca57620002ca620000e0565b620002e281620002db84546200021f565b846200025b565b602080601f8311600181146200031a5760008415620003015750858301515b600019600386901b1c1916600185901b178555620002a5565b600085815260208120601f198616915b828110156200034b578886015182559484019460019091019084016200032a565b50858210156200036a5787850151600019600388901b60f8161c191681555b5050505050600190811b01905550565b634e487b7160e01b600052601160045260246000fd5b600181815b80851115620003d1578160001904821115620003b557620003b56200037a565b80851615620003c357918102915b93841c939080029062000395565b509250929050565b600082620003ea5750600162000489565b81620003f95750600062000489565b81600181146200041257600281146200041d576200043d565b600191505062000489565b60ff8411156200043157620004316200037a565b50506001821b62000489565b5060208310610133831016604e8410600b841016171562000462575081810a62000489565b6200046e838362000390565b80600019048211156200048557620004856200037a565b0290505b92915050565b60006200049d8383620003d9565b9392505050565b80820281158282048414176200048957620004896200037a565b610d4e80620004ce6000396000f3fe608060405234801561001057600080fd5b506004361061014d5760003560e01c806367e8a397116100c35780639fda4b551161007c5780639fda4b55146102bf578063a9059cbb146102c7578063b2e518ad146102da578063bab96a8c146102e2578063d89135cd146102ea578063dd62ed3e146102f357600080fd5b806367e8a397146102615780637073efe11461026a57806370a082311461027d57806395d89b41146102a65780639a4897e4146102ae5780639b4cf2c6146102b757600080fd5b8063313ce56711610115578063313ce567146101f5578063315865df1461021457806342966c681461021d5780634694e74614610230578063472700cd146102385780635b6e86ce1461025857600080fd5b806306fdde0314610152578063095ea7b314610170578063097cd9bf1461019357806318160ddd146101d057806323b872dd146101e2575b600080fd5b61015a61032c565b6040516101679190610b12565b60405180910390f35b61018361017e366004610b7c565b6103ba565b6040519015158152602001610167565b61019b6103d1565b604080519788526020880196909652948601939093526060850191909152608084015260a083015260c082015260e001610167565b6002545b604051908152602001610167565b6101836101f0366004610ba6565b610416565b6007546102029060ff1681565b60405160ff9091168152602001610167565b6101d461138881565b61018361022b366004610be2565b6104ca565b6101d46106f8565b6101d4610246366004610bfb565b600a6020526000908152604090205481565b6101d460095481565b6101d4600b5481565b6101d4610278366004610be2565b61072b565b6101d461028b366004610bfb565b6001600160a01b031660009081526020819052604090205490565b61015a61078f565b6101d460085481565b6101d4600a81565b6101d461079c565b6101836102d5366004610b7c565b6107ae565b6101d46107bb565b6101d46107df565b6101d460045481565b6101d4610301366004610c1d565b6001600160a01b03918216600090815260016020908152604080832093909416825291909152205490565b6005805461033990610c50565b80601f016020809104026020016040519081016040528092919081815260200182805461036590610c50565b80156103b25780601f10610387576101008083540402835291602001916103b2565b820191906000526020600020905b81548152906001019060200180831161039557829003601f168201915b505050505081565b60006103c73384846107f4565b5060015b92915050565b60008060008060008060006003546002546004546103ed6107bb565b6103f56107df565b6103fd61079c565b600b54959d949c50929a50909850965094509092509050565b6001600160a01b0383166000908152600160209081526040808320338452909152812054828110156104a05760405162461bcd60e51b815260206004820152602860248201527f45524332303a207472616e7366657220616d6f756e74206578636565647320616044820152676c6c6f77616e636560c01b60648201526084015b60405180910390fd5b6104ab858585610901565b6104bf85336104ba8685610ca0565b6107f4565b506001949350505050565b60008082116105265760405162461bcd60e51b815260206004820152602260248201527f4275726e20616d6f756e74206d7573742062652067726561746572207468616e604482015261020360f41b6064820152608401610497565b336000908152602081905260409020548211156105855760405162461bcd60e51b815260206004820152601c60248201527f496e73756666696369656e742062616c616e636520746f206275726e000000006044820152606401610497565b33600090815260208190526040812080548492906105a4908490610ca0565b9250508190555081600260008282546105bd9190610ca0565b9250508190555081600460008282546105d69190610cb3565b9091555050336000908152600a6020526040812080548492906105fa908490610cb3565b9091555050600b805490600061060f83610cc6565b909155505060095461061f610ac9565b60405183815260009033907fddf252ad1be2c89b69c2b068fc378daa952ba7f163c4a11628f55a4df523b3ef9060200160405180910390a360095460405133917fccbea4088a3b7ae9ca2d15fab9a9742a4075b4d7247768a1eecea917565aba009161069391878252602082015260400190565b60405180910390a260095481146103c7577faac3115524b9cb16ee3b0d706d5115e1bd7f143553124cb66791b7f5e65c9feb816009546106d16107bb565b6040805193845260208401929092529082015260600160405180910390a150600192915050565b600060035460000361070a5750600090565b60035460025461071c90612710610cdf565b6107269190610cf6565b905090565b6000808260045461073c9190610cb3565b90506000600354826127106107519190610cdf565b61075b9190610cf6565b90506000606461076c600a84610cdf565b6107769190610cf6565b905061138881111561078757506113885b949350505050565b6006805461033990610c50565b60006127106009546107269190610ca0565b60006103c7338484610901565b60006003546000036107cd5750600090565b60035460045461071c90612710610cdf565b600061271060095460085461071c9190610cdf565b6001600160a01b03831661084a5760405162461bcd60e51b815260206004820181905260248201527f45524332303a20617070726f76652066726f6d207a65726f20616464726573736044820152606401610497565b6001600160a01b0382166108a05760405162461bcd60e51b815260206004820152601e60248201527f45524332303a20617070726f766520746f207a65726f206164647265737300006044820152606401610497565b6001600160a01b0383811660008181526001602090815260408083209487168084529482529182902085905590518481527f8c5be1e5ebec7d5bd14f71427d1e84f3dd0314c0f7b2291e5b200ac8c7c3b925910160405180910390a3505050565b6001600160a01b0383166109615760405162461bcd60e51b815260206004820152602160248201527f45524332303a207472616e736665722066726f6d207a65726f206164647265736044820152607360f81b6064820152608401610497565b6001600160a01b0382166109b75760405162461bcd60e51b815260206004820152601f60248201527f45524332303a207472616e7366657220746f207a65726f2061646472657373006044820152606401610497565b6001600160a01b03831660009081526020819052604090205481811015610a2f5760405162461bcd60e51b815260206004820152602660248201527f45524332303a207472616e7366657220616d6f756e7420657863656564732062604482015265616c616e636560d01b6064820152608401610497565b610a398282610ca0565b6001600160a01b038086166000908152602081905260408082209390935590851681529081208054849290610a6f908490610cb3565b92505081905550826001600160a01b0316846001600160a01b03167fddf252ad1be2c89b69c2b068fc378daa952ba7f163c4a11628f55a4df523b3ef84604051610abb91815260200190565b60405180910390a350505050565b6000610ad36107bb565b905060006064610ae4600a84610cdf565b610aee9190610cf6565b9050611388811115610aff57506113885b610b0b81612710610cb3565b6009555050565b600060208083528351808285015260005b81811015610b3f57858101830151858201604001528201610b23565b506000604082860101526040601f19601f8301168501019250505092915050565b80356001600160a01b0381168114610b7757600080fd5b919050565b60008060408385031215610b8f57600080fd5b610b9883610b60565b946020939093013593505050565b600080600060608486031215610bbb57600080fd5b610bc484610b60565b9250610bd260208501610b60565b9150604084013590509250925092565b600060208284031215610bf457600080fd5b5035919050565b600060208284031215610c0d57600080fd5b610c1682610b60565b9392505050565b60008060408385031215610c3057600080fd5b610c3983610b60565b9150610c4760208401610b60565b90509250929050565b600181811c90821680610c6457607f821691505b602082108103610c8457634e487b7160e01b600052602260045260246000fd5b50919050565b634e487b7160e01b600052601160045260246000fd5b818103818111156103cb576103cb610c8a565b808201808211156103cb576103cb610c8a565b600060018201610cd857610cd8610c8a565b5060010190565b80820281158282048414176103cb576103cb610c8a565b600082610d1357634e487b7160e01b600052601260045260246000fd5b50049056fea2646970667358221220d4fff51b3c1fa05b6d9ae77ae24f56c85d8d5495a3b4e1bc5462e4f0fe8fc6e764736f6c63430008130033","opcodes":"PUSH1 0x80 PUSH1 0x40 MSTORE CALLVALUE DUP1 ISZERO PUSH3 0x11 JUMPI PUSH1 0x0 DUP1 REVERT JUMPDEST POP PUSH1 0x40 MLOAD PUSH3 0x121C CODESIZE SUB DUP1 PUSH3 0x121C DUP4 CODECOPY DUP2 ADD PUSH1 0x40 DUP2 SWAP1 MSTORE PUSH3 0x34 SWAP2 PUSH3 0x1A5 JUMP JUMPDEST PUSH1 0x5 PUSH3 0x42 DUP6 DUP3 PUSH3 0x2AE JUMP JUMPDEST POP PUSH1 0x6 PUSH3 0x51 DUP5 DUP3 PUSH3 0x2AE JUMP JUMPDEST POP PUSH1 0x7 DUP1 SLOAD PUSH1 0xFF NOT AND PUSH1 0x12 SWAP1 DUP2 OR SWAP1 SWAP2 SSTORE PUSH3 0x6F SWAP1 PUSH1 0xA PUSH3 0x48F JUMP JUMPDEST PUSH3 0x7B SWAP1 DUP4 PUSH3 0x4A4 JUMP JUMPDEST PUSH1 0x2 DUP2 SWAP1 SSTORE PUSH1 0x3 DUP2 SWAP1 SSTORE CALLER PUSH1 0x0 DUP2 DUP2 MSTORE PUSH1 0x20 DUP2 DUP2 MSTORE PUSH1 0x40 DUP1 DUP4 KECCAK256 DUP6 SWAP1 SSTORE PUSH1 0x8 DUP7 SWAP1 SSTORE PUSH2 0x2710 PUSH1 0x9 SSTORE MLOAD SWAP4 DUP5 MSTORE SWAP2 SWAP3 SWAP1 SWAP2 PUSH32 0xDDF252AD1BE2C89B69C2B068FC378DAA952BA7F163C4A11628F55A4DF523B3EF SWAP2 ADD PUSH1 0x40 MLOAD DUP1 SWAP2 SUB SWAP1 LOG3 POP POP POP POP PUSH3 0x4BE JUMP JUMPDEST PUSH4 0x4E487B71 PUSH1 0xE0 SHL PUSH1 0x0 MSTORE PUSH1 0x41 PUSH1 0x4 MSTORE PUSH1 0x24 PUSH1 0x0 REVERT JUMPDEST PUSH1 0x0 DUP3 PUSH1 0x1F DUP4 ADD SLT PUSH3 0x108 JUMPI PUSH1 0x0 DUP1 REVERT JUMPDEST DUP2 MLOAD PUSH1 0x1 PUSH1 0x1 PUSH1 0x40 SHL SUB DUP1 DUP3 GT ISZERO PUSH3 0x125 JUMPI PUSH3 0x125 PUSH3 0xE0 JUMP JUMPDEST PUSH1 0x40 MLOAD PUSH1 0x1F DUP4 ADD PUSH1 0x1F NOT SWAP1 DUP2 AND PUSH1 0x3F ADD AND DUP2 ADD SWAP1 DUP3 DUP3 GT DUP2 DUP4 LT OR ISZERO PUSH3 0x150 JUMPI PUSH3 0x150 PUSH3 0xE0 JUMP JUMPDEST DUP2 PUSH1 0x40 MSTORE DUP4 DUP2 MSTORE PUSH1 0x20 SWAP3 POP DUP7 DUP4 DUP6 DUP9 ADD ADD GT ISZERO PUSH3 0x16D JUMPI PUSH1 0x0 DUP1 REVERT JUMPDEST PUSH1 0x0 SWAP2 POP JUMPDEST DUP4 DUP3 LT ISZERO PUSH3 0x191 JUMPI DUP6 DUP3 ADD DUP4 ADD MLOAD DUP2 DUP4 ADD DUP5 ADD MSTORE SWAP1 DUP3 ADD SWAP1 PUSH3 0x172 JUMP JUMPDEST PUSH1 0x0 SWAP4 DUP2 ADD SWAP1 SWAP3 ADD SWAP3 SWAP1 SWAP3 MSTORE SWAP5 SWAP4 POP POP POP POP JUMP JUMPDEST PUSH1 0x0 DUP1 PUSH1 0x0 DUP1 PUSH1 0x80 DUP6 DUP8 SUB SLT ISZERO PUSH3 0x1BC JUMPI PUSH1 0x0 DUP1 REVERT JUMPDEST DUP5 MLOAD PUSH1 0x1 PUSH1 0x1 PUSH1 0x40 SHL SUB DUP1 DUP3 GT ISZERO PUSH3 0x1D4 JUMPI PUSH1 0x0 DUP1 REVERT JUMPDEST PUSH3 0x1E2 DUP9 DUP4 DUP10 ADD PUSH3 0xF6 JUMP JUMPDEST SWAP6 POP PUSH1 0x20 DUP8 ADD MLOAD SWAP2 POP DUP1 DUP3 GT ISZERO PUSH3 0x1F9 JUMPI PUSH1 0x0 DUP1 REVERT JUMPDEST POP PUSH3 0x208 DUP8 DUP3 DUP9 ADD PUSH3 0xF6 JUMP JUMPDEST PUSH1 0x40 DUP8 ADD MLOAD PUSH1 0x60 SWAP1 SWAP8 ADD MLOAD SWAP6 SWAP9 SWAP1 SWAP8 POP SWAP4 POP POP POP POP JUMP JUMPDEST PUSH1 0x1 DUP2 DUP2 SHR SWAP1 DUP3 AND DUP1 PUSH3 0x234 JUMPI PUSH1 0x7F DUP3 AND SWAP2 POP JUMPDEST PUSH1 0x20 DUP3 LT DUP2 SUB PUSH3 0x255 JUMPI PUSH4 0x4E487B71 PUSH1 0xE0 SHL PUSH1 0x0 MSTORE PUSH1 0x22 PUSH1 0x4 MSTORE PUSH1 0x24 PUSH1 0x0 REVERT JUMPDEST POP SWAP2 SWAP1 POP JUMP JUMPDEST PUSH1 0x1F DUP3 GT ISZERO PUSH3 0x2A9 JUMPI PUSH1 0x0 DUP2 DUP2 MSTORE PUSH1 0x20 DUP2 KECCAK256 PUSH1 0x1F DUP6 ADD PUSH1 0x5 SHR DUP2 ADD PUSH1 0x20 DUP7 LT ISZERO PUSH3 0x284 JUMPI POP DUP1 JUMPDEST PUSH1 0x1F DUP6 ADD PUSH1 0x5 SHR DUP3 ADD SWAP2 POP JUMPDEST DUP2 DUP2 LT ISZERO PUSH3 0x2A5 JUMPI DUP3 DUP2 SSTORE PUSH1 0x1 ADD PUSH3 0x290 JUMP JUMPDEST POP POP POP JUMPDEST POP POP POP JUMP JUMPDEST DUP2 MLOAD PUSH1 0x1 PUSH1 0x1 PUSH1 0x40 SHL SUB DUP2 GT ISZERO PUSH3 0x2CA JUMPI PUSH3 0x2CA PUSH3 0xE0 JUMP JUMPDEST PUSH3 0x2E2 DUP2 PUSH3 0x2DB DUP5 SLOAD PUSH3 0x21F JUMP JUMPDEST DUP5 PUSH3 0x25B JUMP JUMPDEST PUSH1 0x20 DUP1 PUSH1 0x1F DUP4 GT PUSH1 0x1 DUP2 EQ PUSH3 0x31A JUMPI PUSH1 0x0 DUP5 ISZERO PUSH3 0x301 JUMPI POP DUP6 DUP4 ADD MLOAD JUMPDEST PUSH1 0x0 NOT PUSH1 0x3 DUP7 SWAP1 SHL SHR NOT AND PUSH1 0x1 DUP6 SWAP1 SHL OR DUP6 SSTORE PUSH3 0x2A5 JUMP JUMPDEST PUSH1 0x0 DUP6 DUP2 MSTORE PUSH1 0x20 DUP2 KECCAK256 PUSH1 0x1F NOT DUP7 AND SWAP2 JUMPDEST DUP3 DUP2 LT ISZERO PUSH3 0x34B JUMPI DUP9 DUP7 ADD MLOAD DUP3 SSTORE SWAP5 DUP5 ADD SWAP5 PUSH1 0x1 SWAP1 SWAP2 ADD SWAP1 DUP5 ADD PUSH3 0x32A JUMP JUMPDEST POP DUP6 DUP3 LT ISZERO PUSH3 0x36A JUMPI DUP8 DUP6 ADD MLOAD PUSH1 0x0 NOT PUSH1 0x3 DUP9 SWAP1 SHL PUSH1 0xF8 AND SHR NOT AND DUP2 SSTORE JUMPDEST POP POP POP POP POP PUSH1 0x1 SWAP1 DUP2 SHL ADD SWAP1 SSTORE POP JUMP JUMPDEST PUSH4 0x4E487B71 PUSH1 0xE0 SHL PUSH1 0x0 MSTORE PUSH1 0x11 PUSH1 0x4 MSTORE PUSH1 0x24 PUSH1 0x0 REVERT JUMPDEST PUSH1 0x1 DUP2 DUP2 JUMPDEST DUP1 DUP6 GT ISZERO PUSH3 0x3D1 JUMPI DUP2 PUSH1 0x0 NOT DIV DUP3 GT ISZERO PUSH3 0x3B5 JUMPI PUSH3 0x3B5 PUSH3 0x37A JUMP JUMPDEST DUP1 DUP6 AND ISZERO PUSH3 0x3C3 JUMPI SWAP2 DUP2 MUL SWAP2 JUMPDEST SWAP4 DUP5 SHR SWAP4 SWAP1 DUP1 MUL SWAP1 PUSH3 0x395 JUMP JUMPDEST POP SWAP3 POP SWAP3 SWAP1 POP JUMP JUMPDEST PUSH1 0x0 DUP3 PUSH3 0x3EA JUMPI POP PUSH1 0x1 PUSH3 0x489 JUMP JUMPDEST DUP2 PUSH3 0x3F9 JUMPI POP PUSH1 0x0 PUSH3 0x489 JUMP JUMPDEST DUP2 PUSH1 0x1 DUP2 EQ PUSH3 0x412 JUMPI PUSH1 0x2 DUP2 EQ PUSH3 0x41D JUMPI PUSH3 0x43D JUMP JUMPDEST PUSH1 0x1 SWAP2 POP POP PUSH3 0x489 JUMP JUMPDEST PUSH1 0xFF DUP5 GT ISZERO PUSH3 0x431 JUMPI PUSH3 0x431 PUSH3 0x37A JUMP JUMPDEST POP POP PUSH1 0x1 DUP3 SHL PUSH3 0x489 JUMP JUMPDEST POP PUSH1 0x20 DUP4 LT PUSH2 0x133 DUP4 LT AND PUSH1 0x4E DUP5 LT PUSH1 0xB DUP5 LT AND OR ISZERO PUSH3 0x462 JUMPI POP DUP2 DUP2 EXP PUSH3 0x489 JUMP JUMPDEST PUSH3 0x46E DUP4 DUP4 PUSH3 0x390 JUMP JUMPDEST DUP1 PUSH1 0x0 NOT DIV DUP3 GT ISZERO PUSH3 0x485 JUMPI PUSH3 0x485 PUSH3 0x37A JUMP JUMPDEST MUL SWAP1 POP JUMPDEST SWAP3 SWAP2 POP POP JUMP JUMPDEST PUSH1 0x0 PUSH3 0x49D DUP4 DUP4 PUSH3 0x3D9 JUMP JUMPDEST SWAP4 SWAP3 POP POP POP JUMP JUMPDEST DUP1 DUP3 MUL DUP2 ISZERO DUP3 DUP3 DIV DUP5 EQ OR PUSH3 0x489 JUMPI PUSH3 0x489 PUSH3 0x37A JUMP JUMPDEST PUSH2 0xD4E DUP1 PUSH3 0x4CE PUSH1 0x0 CODECOPY PUSH1 0x0 RETURN INVALID PUSH1 0x80 PUSH1 0x40 MSTORE CALLVALUE DUP1 ISZERO PUSH2 0x10 JUMPI PUSH1 0x0 DUP1 REVERT JUMPDEST POP PUSH1 0x4 CALLDATASIZE LT PUSH2 0x14D JUMPI PUSH1 0x0 CALLDATALOAD PUSH1 0xE0 SHR DUP1 PUSH4 0x67E8A397 GT PUSH2 0xC3 JUMPI DUP1 PUSH4 0x9FDA4B55 GT PUSH2 0x7C JUMPI DUP1 PUSH4 0x9FDA4B55 EQ PUSH2 0x2BF JUMPI DUP1 PUSH4 0xA9059CBB EQ PUSH2 0x2C7 JUMPI DUP1 PUSH4 0xB2E518AD EQ PUSH2 0x2DA JUMPI DUP1 PUSH4 0xBAB96A8C EQ PUSH2 0x2E2 JUMPI DUP1 PUSH4 0xD89135CD EQ PUSH2 0x2EA JUMPI DUP1 PUSH4 0xDD62ED3E EQ PUSH2 0x2F3 JUMPI PUSH1 0x0 DUP1 REVERT JUMPDEST DUP1 PUSH4 0x67E8A397 EQ PUSH2 0x261 JUMPI DUP1 PUSH4 0x7073EFE1 EQ PUSH2 0x26A JUMPI DUP1 PUSH4 0x70A08231 EQ PUSH2 0x27D JUMPI DUP1 PUSH4 0x95D89B41 EQ PUSH2 0x2A6 JUMPI DUP1 PUSH4 0x9A4897E4 EQ PUSH2 0x2AE JUMPI DUP1 PUSH4 0x9B4CF2C6 EQ PUSH2 0x2B7 JUMPI PUSH1 0x0 DUP1 REVERT JUMPDEST DUP1 PUSH4 0x313CE567 GT PUSH2 0x115 JUMPI DUP1 PUSH4 0x313CE567 EQ PUSH2 0x1F5 JUMPI DUP1 PUSH4 0x315865DF EQ PUSH2 0x214 JUMPI DUP1 PUSH4 0x42966C68 EQ PUSH2 0x21D JUMPI DUP1 PUSH4 0x4694E746 EQ PUSH2 0x230 JUMPI DUP1 PUSH4 0x472700CD EQ PUSH2 0x238 JUMPI DUP1 PUSH4 0x5B6E86CE EQ PUSH2 0x258 JUMPI PUSH1 0x0 DUP1 REVERT JUMPDEST DUP1 PUSH4 0x6FDDE03 EQ PUSH2 0x152 JUMPI DUP1 PUSH4 0x95EA7B3 EQ PUSH2 0x170 JUMPI DUP1 PUSH4 0x97CD9BF EQ PUSH2 0x193 JUMPI DUP1 PUSH4 0x18160DDD EQ PUSH2 0x1D0 JUMPI DUP1 PUSH4 0x23B872DD EQ PUSH2 0x1E2 JUMPI JUMPDEST PUSH1 0x0 DUP1 REVERT JUMPDEST PUSH2 0x15A PUSH2 0x32C JUMP JUMPDEST PUSH1 0x40 MLOAD PUSH2 0x167 SWAP2 SWAP1 PUSH2 0xB12 JUMP JUMPDEST PUSH1 0x40 MLOAD DUP1 SWAP2 SUB SWAP1 RETURN JUMPDEST PUSH2 0x183 PUSH2 0x17E CALLDATASIZE PUSH1 0x4 PUSH2 0xB7C JUMP JUMPDEST PUSH2 0x3BA JUMP JUMPDEST PUSH1 0x40 MLOAD SWAP1 ISZERO ISZERO DUP2 MSTORE PUSH1 0x20 ADD PUSH2 0x167 JUMP JUMPDEST PUSH2 0x19B PUSH2 0x3D1 JUMP JUMPDEST PUSH1 0x40 DUP1 MLOAD SWAP8 DUP9 MSTORE PUSH1 0x20 DUP9 ADD SWAP7 SWAP1 SWAP7 MSTORE SWAP5 DUP7 ADD SWAP4 SWAP1 SWAP4 MSTORE PUSH1 0x60 DUP6 ADD SWAP2 SWAP1 SWAP2 MSTORE PUSH1 0x80 DUP5 ADD MSTORE PUSH1 0xA0 DUP4 ADD MSTORE PUSH1 0xC0 DUP3 ADD MSTORE PUSH1 0xE0 ADD PUSH2 0x167 JUMP JUMPDEST PUSH1 0x2 SLOAD JUMPDEST PUSH1 0x40 MLOAD SWAP1 DUP2 MSTORE PUSH1 0x20 ADD PUSH2 0x167 JUMP JUMPDEST PUSH2 0x183 PUSH2 0x1F0 CALLDATASIZE PUSH1 0x4 PUSH2 0xBA6 JUMP JUMPDEST PUSH2 0x416 JUMP JUMPDEST PUSH1 0x7 SLOAD PUSH2 0x202 SWAP1 PUSH1 0xFF AND DUP2 JUMP JUMPDEST PUSH1 0x40 MLOAD PUSH1 0xFF SWAP1 SWAP2 AND DUP2 MSTORE PUSH1 0x20 ADD PUSH2 0x167 JUMP JUMPDEST PUSH2 0x1D4 PUSH2 0x1388 DUP2 JUMP JUMPDEST PUSH2 0x183 PUSH2 0x22B CALLDATASIZE PUSH1 0x4 PUSH2 0xBE2 JUMP JUMPDEST PUSH2 0x4CA JUMP JUMPDEST PUSH2 0x1D4 PUSH2 0x6F8 JUMP JUMPDEST PUSH2 0x1D4 PUSH2 0x246 CALLDATASIZE PUSH1 0x4 PUSH2 0xBFB JUMP JUMPDEST PUSH1 0xA PUSH1 0x20 MSTORE PUSH1 0x0 SWAP1 DUP2 MSTORE PUSH1 0x40 SWAP1 KECCAK256 SLOAD DUP2 JUMP JUMPDEST PUSH2 0x1D4 PUSH1 0x9 SLOAD DUP2 JUMP JUMPDEST PUSH2 0x1D4 PUSH1 0xB SLOAD DUP2 JUMP JUMPDEST PUSH2 0x1D4 PUSH2 0x278 CALLDATASIZE PUSH1 0x4 PUSH2 0xBE2 JUMP JUMPDEST PUSH2 0x72B JUMP JUMPDEST PUSH2 0x1D4 PUSH2 0x28B CALLDATASIZE PUSH1 0x4 PUSH2 0xBFB JUMP JUMPDEST PUSH1 0x1 PUSH1 0x1 PUSH1 0xA0 SHL SUB AND PUSH1 0x0 SWAP1 DUP2 MSTORE PUSH1 0x20 DUP2 SWAP1 MSTORE PUSH1 0x40 SWAP1 KECCAK256 SLOAD SWAP1 JUMP JUMPDEST PUSH2 0x15A PUSH2 0x78F JUMP JUMPDEST PUSH2 0x1D4 PUSH1 0x8 SLOAD DUP2 JUMP JUMPDEST PUSH2 0x1D4 PUSH1 0xA DUP2 JUMP JUMPDEST PUSH2 0x1D4 PUSH2 0x79C JUMP JUMPDEST PUSH2 0x183 PUSH2 0x2D5 CALLDATASIZE PUSH1 0x4 PUSH2 0xB7C JUMP JUMPDEST PUSH2 0x7AE JUMP JUMPDEST PUSH2 0x1D4 PUSH2 0x7BB JUMP JUMPDEST PUSH2 0x1D4 PUSH2 0x7DF JUMP JUMPDEST PUSH2 0x1D4 PUSH1 0x4 SLOAD DUP2 JUMP JUMPDEST PUSH2 0x1D4 PUSH2 0x301 CALLDATASIZE PUSH1 0x4 PUSH2 0xC1D JUMP JUMPDEST PUSH1 0x1 PUSH1 0x1 PUSH1 0xA0 SHL SUB SWAP2 DUP3 AND PUSH1 0x0 SWAP1 DUP2 MSTORE PUSH1 0x1 PUSH1 0x20 SWAP1 DUP2 MSTORE PUSH1 0x40 DUP1 DUP4 KECCAK256 SWAP4 SWAP1 SWAP5 AND DUP3 MSTORE SWAP2 SWAP1 SWAP2 MSTORE KECCAK256 SLOAD SWAP1 JUMP JUMPDEST PUSH1 0x5 DUP1 SLOAD PUSH2 0x339 SWAP1 PUSH2 0xC50 JUMP JUMPDEST DUP1 PUSH1 0x1F ADD PUSH1 0x20 DUP1 SWAP2 DIV MUL PUSH1 0x20 ADD PUSH1 0x40 MLOAD SWAP1 DUP2 ADD PUSH1 0x40 MSTORE DUP1 SWAP3 SWAP2 SWAP1 DUP2 DUP2 MSTORE PUSH1 0x20 ADD DUP3 DUP1 SLOAD PUSH2 0x365 SWAP1 PUSH2 0xC50 JUMP JUMPDEST DUP1 ISZERO PUSH2 0x3B2 JUMPI DUP1 PUSH1 0x1F LT PUSH2 0x387 JUMPI PUSH2 0x100 DUP1 DUP4 SLOAD DIV MUL DUP4 MSTORE SWAP2 PUSH1 0x20 ADD SWAP2 PUSH2 0x3B2 JUMP JUMPDEST DUP3 ADD SWAP2 SWAP1 PUSH1 0x0 MSTORE PUSH1 0x20 PUSH1 0x0 KECCAK256 SWAP1 JUMPDEST DUP2 SLOAD DUP2 MSTORE SWAP1 PUSH1 0x1 ADD SWAP1 PUSH1 0x20 ADD DUP1 DUP4 GT PUSH2 0x395 JUMPI DUP3 SWAP1 SUB PUSH1 0x1F AND DUP3 ADD SWAP2 JUMPDEST POP POP POP POP POP DUP2 JUMP JUMPDEST PUSH1 0x0 PUSH2 0x3C7 CALLER DUP5 DUP5 PUSH2 0x7F4 JUMP JUMPDEST POP PUSH1 0x1 JUMPDEST SWAP3 SWAP2 POP POP JUMP JUMPDEST PUSH1 0x0 DUP1 PUSH1 0x0 DUP1 PUSH1 0x0 DUP1 PUSH1 0x0 PUSH1 0x3 SLOAD PUSH1 0x2 SLOAD PUSH1 0x4 SLOAD PUSH2 0x3ED PUSH2 0x7BB JUMP JUMPDEST PUSH2 0x3F5 PUSH2 0x7DF JUMP JUMPDEST PUSH2 0x3FD PUSH2 0x79C JUMP JUMPDEST PUSH1 0xB SLOAD SWAP6 SWAP14 SWAP5 SWAP13 POP SWAP3 SWAP11 POP SWAP1 SWAP9 POP SWAP7 POP SWAP5 POP SWAP1 SWAP3 POP SWAP1 POP JUMP JUMPDEST PUSH1 0x1 PUSH1 0x1 PUSH1 0xA0 SHL SUB DUP4 AND PUSH1 0x0 SWAP1 DUP2 MSTORE PUSH1 0x1 PUSH1 0x20 SWAP1 DUP2 MSTORE PUSH1 0x40 DUP1 DUP4 KECCAK256 CALLER DUP5 MSTORE SWAP1 SWAP2 MSTORE DUP2 KECCAK256 SLOAD DUP3 DUP2 LT ISZERO PUSH2 0x4A0 JUMPI PUSH1 0x40 MLOAD PUSH3 0x461BCD PUSH1 0xE5 SHL DUP2 MSTORE PUSH1 0x20 PUSH1 0x4 DUP3 ADD MSTORE PUSH1 0x28 PUSH1 0x24 DUP3 ADD MSTORE PUSH32 0x45524332303A207472616E7366657220616D6F756E7420657863656564732061 PUSH1 0x44 DUP3 ADD MSTORE PUSH8 0x6C6C6F77616E6365 PUSH1 0xC0 SHL PUSH1 0x64 DUP3 ADD MSTORE PUSH1 0x84 ADD JUMPDEST PUSH1 0x40 MLOAD DUP1 SWAP2 SUB SWAP1 REVERT JUMPDEST PUSH2 0x4AB DUP6 DUP6 DUP6 PUSH2 0x901 JUMP JUMPDEST PUSH2 0x4BF DUP6 CALLER PUSH2 0x4BA DUP7 DUP6 PUSH2 0xCA0 JUMP JUMPDEST PUSH2 0x7F4 JUMP JUMPDEST POP PUSH1 0x1 SWAP5 SWAP4 POP POP POP POP JUMP JUMPDEST PUSH1 0x0 DUP1 DUP3 GT PUSH2 0x526 JUMPI PUSH1 0x40 MLOAD PUSH3 0x461BCD PUSH1 0xE5 SHL DUP2 MSTORE PUSH1 0x20 PUSH1 0x4 DUP3 ADD MSTORE PUSH1 0x22 PUSH1 0x24 DUP3 ADD MSTORE PUSH32 0x4275726E20616D6F756E74206D7573742062652067726561746572207468616E PUSH1 0x44 DUP3 ADD MSTORE PUSH2 0x203 PUSH1 0xF4 SHL PUSH1 0x64 DUP3 ADD MSTORE PUSH1 0x84 ADD PUSH2 0x497 JUMP JUMPDEST CALLER PUSH1 0x0 SWAP1 DUP2 MSTORE PUSH1 0x20 DUP2 SWAP1 MSTORE PUSH1 0x40 SWAP1 KECCAK256 SLOAD DUP3 GT ISZERO PUSH2 0x585 JUMPI PUSH1 0x40 MLOAD PUSH3 0x461BCD PUSH1 0xE5 SHL DUP2 MSTORE PUSH1 0x20 PUSH1 0x4 DUP3 ADD MSTORE PUSH1 0x1C PUSH1 0x24 DUP3 ADD MSTORE PUSH32 0x496E73756666696369656E742062616C616E636520746F206275726E00000000 PUSH1 0x44 DUP3 ADD MSTORE PUSH1 0x64 ADD PUSH2 0x497 JUMP JUMPDEST CALLER PUSH1 0x0 SWAP1 DUP2 MSTORE PUSH1 0x20 DUP2 SWAP1 MSTORE PUSH1 0x40 DUP2 KECCAK256 DUP1 SLOAD DUP5 SWAP3 SWAP1 PUSH2 0x5A4 SWAP1 DUP5 SWAP1 PUSH2 0xCA0 JUMP JUMPDEST SWAP3 POP POP DUP2 SWAP1 SSTORE POP DUP2 PUSH1 0x2 PUSH1 0x0 DUP3 DUP3 SLOAD PUSH2 0x5BD SWAP2 SWAP1 PUSH2 0xCA0 JUMP JUMPDEST SWAP3 POP POP DUP2 SWAP1 SSTORE POP DUP2 PUSH1 0x4 PUSH1 0x0 DUP3 DUP3 SLOAD PUSH2 0x5D6 SWAP2 SWAP1 PUSH2 0xCB3 JUMP JUMPDEST SWAP1 SWAP2 SSTORE POP POP CALLER PUSH1 0x0 SWAP1 DUP2 MSTORE PUSH1 0xA PUSH1 0x20 MSTORE PUSH1 0x40 DUP2 KECCAK256 DUP1 SLOAD DUP5 SWAP3 SWAP1 PUSH2 0x5FA SWAP1 DUP5 SWAP1 PUSH2 0xCB3 JUMP JUMPDEST SWAP1 SWAP2 SSTORE POP POP PUSH1 0xB DUP1 SLOAD SWAP1 PUSH1 0x0 PUSH2 0x60F DUP4 PUSH2 0xCC6 JUMP JUMPDEST SWAP1 SWAP2 SSTORE POP POP PUSH1 0x9 SLOAD PUSH2 0x61F PUSH2 0xAC9 JUMP JUMPDEST PUSH1 0x40 MLOAD DUP4 DUP2 MSTORE PUSH1 0x0 SWAP1 CALLER SWAP1 PUSH32 0xDDF252AD1BE2C89B69C2B068FC378DAA952BA7F163C4A11628F55A4DF523B3EF SWAP1 PUSH1 0x20 ADD PUSH1 0x40 MLOAD DUP1 SWAP2 SUB SWAP1 LOG3 PUSH1 0x9 SLOAD PUSH1 0x40 MLOAD CALLER SWAP2 PUSH32 0xCCBEA4088A3B7AE9CA2D15FAB9A9742A4075B4D7247768A1EECEA917565ABA00 SWAP2 PUSH2 0x693 SWAP2 DUP8 DUP3 MSTORE PUSH1 0x20 DUP3 ADD MSTORE PUSH1 0x40 ADD SWAP1 JUMP JUMPDEST PUSH1 0x40 MLOAD DUP1 SWAP2 SUB SWAP1 LOG2 PUSH1 0x9 SLOAD DUP2 EQ PUSH2 0x3C7 JUMPI PUSH32 0xAAC3115524B9CB16EE3B0D706D5115E1BD7F143553124CB66791B7F5E65C9FEB DUP2 PUSH1 0x9 SLOAD PUSH2 0x6D1 PUSH2 0x7BB JUMP JUMPDEST PUSH1 0x40 DUP1 MLOAD SWAP4 DUP5 MSTORE PUSH1 0x20 DUP5 ADD SWAP3 SWAP1 SWAP3 MSTORE SWAP1 DUP3 ADD MSTORE PUSH1 0x60 ADD PUSH1 0x40 MLOAD DUP1 SWAP2 SUB SWAP1 LOG1 POP PUSH1 0x1 SWAP3 SWAP2 POP POP JUMP JUMPDEST PUSH1 0x0 PUSH1 0x3 SLOAD PUSH1 0x0 SUB PUSH2 0x70A JUMPI POP PUSH1 0x0 SWAP1 JUMP JUMPDEST PUSH1 0x3 SLOAD PUSH1 0x2 SLOAD PUSH2 0x71C SWAP1 PUSH2 0x2710 PUSH2 0xCDF JUMP JUMPDEST PUSH2 0x726 SWAP2 SWAP1 PUSH2 0xCF6 JUMP JUMPDEST SWAP1 POP SWAP1 JUMP JUMPDEST PUSH1 0x0 DUP1 DUP3 PUSH1 0x4 SLOAD PUSH2 0x73C SWAP2 SWAP1 PUSH2 0xCB3 JUMP JUMPDEST SWAP1 POP PUSH1 0x0 PUSH1 0x3 SLOAD DUP3 PUSH2 0x2710 PUSH2 0x751 SWAP2 SWAP1 PUSH2 0xCDF JUMP JUMPDEST PUSH2 0x75B SWAP2 SWAP1 PUSH2 0xCF6 JUMP JUMPDEST SWAP1 POP PUSH1 0x0 PUSH1 0x64 PUSH2 0x76C PUSH1 0xA DUP5 PUSH2 0xCDF JUMP JUMPDEST PUSH2 0x776 SWAP2 SWAP1 PUSH2 0xCF6 JUMP JUMPDEST SWAP1 POP PUSH2 0x1388 DUP2 GT ISZERO PUSH2 0x787 JUMPI POP PUSH2 0x1388 JUMPDEST SWAP5 SWAP4 POP POP POP POP JUMP JUMPDEST PUSH1 0x6 DUP1 SLOAD PUSH2 0x339 SWAP1 PUSH2 0xC50 JUMP JUMPDEST PUSH1 0x0 PUSH2 0x2710 PUSH1 0x9 SLOAD PUSH2 0x726 SWAP2 SWAP1 PUSH2 0xCA0 JUMP JUMPDEST PUSH1 0x0 PUSH2 0x3C7 CALLER DUP5 DUP5 PUSH2 0x901 JUMP JUMPDEST PUSH1 0x0 PUSH1 0x3 SLOAD PUSH1 0x0 SUB PUSH2 0x7CD JUMPI POP PUSH1 0x0 SWAP1 JUMP JUMPDEST PUSH1 0x3 SLOAD PUSH1 0x4 SLOAD PUSH2 0x71C SWAP1 PUSH2 0x2710 PUSH2 0xCDF JUMP JUMPDEST PUSH1 0x0 PUSH2 0x2710 PUSH1 0x9 SLOAD PUSH1 0x8 SLOAD PUSH2 0x71C SWAP2 SWAP1 PUSH2 0xCDF JUMP JUMPDEST PUSH1 0x1 PUSH1 0x1 PUSH1 0xA0 SHL SUB DUP4 AND PUSH2 0x84A JUMPI PUSH1 0x40 MLOAD PUSH3 0x461BCD PUSH1 0xE5 SHL DUP2 MSTORE PUSH1 0x20 PUSH1 0x4 DUP3 ADD DUP2 SWAP1 MSTORE PUSH1 0x24 DUP3 ADD MSTORE PUSH32 0x45524332303A20617070726F76652066726F6D207A65726F2061646472657373 PUSH1 0x44 DUP3 ADD MSTORE PUSH1 0x64 ADD PUSH2 0x497 JUMP JUMPDEST PUSH1 0x1 PUSH1 0x1 PUSH1 0xA0 SHL SUB DUP3 AND PUSH2 0x8A0 JUMPI PUSH1 0x40 MLOAD PUSH3 0x461BCD PUSH1 0xE5 SHL DUP2 MSTORE PUSH1 0x20 PUSH1 0x4 DUP3 ADD MSTORE PUSH1 0x1E PUSH1 0x24 DUP3 ADD MSTORE PUSH32 0x45524332303A20617070726F766520746F207A65726F20616464726573730000 PUSH1 0x44 DUP3 ADD MSTORE PUSH1 0x64 ADD PUSH2 0x497 JUMP JUMPDEST PUSH1 0x1 PUSH1 0x1 PUSH1 0xA0 SHL SUB DUP4 DUP2 AND PUSH1 0x0 DUP2 DUP2 MSTORE PUSH1 0x1 PUSH1 0x20 SWAP1 DUP2 MSTORE PUSH1 0x40 DUP1 DUP4 KECCAK256 SWAP5 DUP8 AND DUP1 DUP5 MSTORE SWAP5 DUP3 MSTORE SWAP2 DUP3 SWAP1 KECCAK256 DUP6 SWAP1 SSTORE SWAP1 MLOAD DUP5 DUP2 MSTORE PUSH32 0x8C5BE1E5EBEC7D5BD14F71427D1E84F3DD0314C0F7B2291E5B200AC8C7C3B925 SWAP2 ADD PUSH1 0x40 MLOAD DUP1 SWAP2 SUB SWAP1 LOG3 POP POP POP JUMP JUMPDEST PUSH1 0x1 PUSH1 0x1 PUSH1 0xA0 SHL SUB DUP4 AND PUSH2 0x961 JUMPI PUSH1 0x40 MLOAD PUSH3 0x461BCD PUSH1 0xE5 SHL DUP2 MSTORE PUSH1 0x20 PUSH1 0x4 DUP3 ADD MSTORE PUSH1 0x21 PUSH1 0x24 DUP3 ADD MSTORE PUSH32 0x45524332303A207472616E736665722066726F6D207A65726F20616464726573 PUSH1 0x44 DUP3 ADD MSTORE PUSH1 0x73 PUSH1 0xF8 SHL PUSH1 0x64 DUP3 ADD MSTORE PUSH1 0x84 ADD PUSH2 0x497 JUMP JUMPDEST PUSH1 0x1 PUSH1 0x1 PUSH1 0xA0 SHL SUB DUP3 AND PUSH2 0x9B7 JUMPI PUSH1 0x40 MLOAD PUSH3 0x461BCD PUSH1 0xE5 SHL DUP2 MSTORE PUSH1 0x20 PUSH1 0x4 DUP3 ADD MSTORE PUSH1 0x1F PUSH1 0x24 DUP3 ADD MSTORE PUSH32 0x45524332303A207472616E7366657220746F207A65726F206164647265737300 PUSH1 0x44 DUP3 ADD MSTORE PUSH1 0x64 ADD PUSH2 0x497 JUMP JUMPDEST PUSH1 0x1 PUSH1 0x1 PUSH1 0xA0 SHL SUB DUP4 AND PUSH1 0x0 SWAP1 DUP2 MSTORE PUSH1 0x20 DUP2 SWAP1 MSTORE PUSH1 0x40 SWAP1 KECCAK256 SLOAD DUP2 DUP2 LT ISZERO PUSH2 0xA2F JUMPI PUSH1 0x40 MLOAD PUSH3 0x461BCD PUSH1 0xE5 SHL DUP2 MSTORE PUSH1 0x20 PUSH1 0x4 DUP3 ADD MSTORE PUSH1 0x26 PUSH1 0x24 DUP3 ADD MSTORE PUSH32 0x45524332303A207472616E7366657220616D6F756E7420657863656564732062 PUSH1 0x44 DUP3 ADD MSTORE PUSH6 0x616C616E6365 PUSH1 0xD0 SHL PUSH1 0x64 DUP3 ADD MSTORE PUSH1 0x84 ADD PUSH2 0x497 JUMP JUMPDEST PUSH2 0xA39 DUP3 DUP3 PUSH2 0xCA0 JUMP JUMPDEST PUSH1 0x1 PUSH1 0x1 PUSH1 0xA0 SHL SUB DUP1 DUP7 AND PUSH1 0x0 SWAP1 DUP2 MSTORE PUSH1 0x20 DUP2 SWAP1 MSTORE PUSH1 0x40 DUP1 DUP3 KECCAK256 SWAP4 SWAP1 SWAP4 SSTORE SWAP1 DUP6 AND DUP2 MSTORE SWAP1 DUP2 KECCAK256 DUP1 SLOAD DUP5 SWAP3 SWAP1 PUSH2 0xA6F SWAP1 DUP5 SWAP1 PUSH2 0xCB3 JUMP JUMPDEST SWAP3 POP POP DUP2 SWAP1 SSTORE POP DUP3 PUSH1 0x1 PUSH1 0x1 PUSH1 0xA0 SHL SUB AND DUP5 PUSH1 0x1 PUSH1 0x1 PUSH1 0xA0 SHL SUB AND PUSH32 0xDDF252AD1BE2C89B69C2B068FC378DAA952BA7F163C4A11628F55A4DF523B3EF DUP5 PUSH1 0x40 MLOAD PUSH2 0xABB SWAP2 DUP2 MSTORE PUSH1 0x20 ADD SWAP1 JUMP JUMPDEST PUSH1 0x40 MLOAD DUP1 SWAP2 SUB SWAP1 LOG3 POP POP POP POP JUMP JUMPDEST PUSH1 0x0 PUSH2 0xAD3 PUSH2 0x7BB JUMP JUMPDEST SWAP1 POP PUSH1 0x0 PUSH1 0x64 PUSH2 0xAE4 PUSH1 0xA DUP5 PUSH2 0xCDF JUMP JUMPDEST PUSH2 0xAEE SWAP2 SWAP1 PUSH2 0xCF6 JUMP JUMPDEST SWAP1 POP PUSH2 0x1388 DUP2 GT ISZERO PUSH2 0xAFF JUMPI POP PUSH2 0x1388 JUMPDEST PUSH2 0xB0B DUP2 PUSH2 0x2710 PUSH2 0xCB3 JUMP JUMPDEST PUSH1 0x9 SSTORE POP POP JUMP JUMPDEST PUSH1 0x0 PUSH1 0x20 DUP1 DUP4 MSTORE DUP4 MLOAD DUP1 DUP3 DUP6 ADD MSTORE PUSH1 0x0 JUMPDEST DUP2 DUP2 LT ISZERO PUSH2 0xB3F JUMPI DUP6 DUP2 ADD DUP4 ADD MLOAD DUP6 DUP3 ADD PUSH1 0x40 ADD MSTORE DUP3 ADD PUSH2 0xB23 JUMP JUMPDEST POP PUSH1 0x0 PUSH1 0x40 DUP3 DUP7 ADD ADD MSTORE PUSH1 0x40 PUSH1 0x1F NOT PUSH1 0x1F DUP4 ADD AND DUP6 ADD ADD SWAP3 POP POP POP SWAP3 SWAP2 POP POP JUMP JUMPDEST DUP1 CALLDATALOAD PUSH1 0x1 PUSH1 0x1 PUSH1 0xA0 SHL SUB DUP2 AND DUP2 EQ PUSH2 0xB77 JUMPI PUSH1 0x0 DUP1 REVERT JUMPDEST SWAP2 SWAP1 POP JUMP JUMPDEST PUSH1 0x0 DUP1 PUSH1 0x40 DUP4 DUP6 SUB SLT ISZERO PUSH2 0xB8F JUMPI PUSH1 0x0 DUP1 REVERT JUMPDEST PUSH2 0xB98 DUP4 PUSH2 0xB60 JUMP JUMPDEST SWAP5 PUSH1 0x20 SWAP4 SWAP1 SWAP4 ADD CALLDATALOAD SWAP4 POP POP POP JUMP JUMPDEST PUSH1 0x0 DUP1 PUSH1 0x0 PUSH1 0x60 DUP5 DUP7 SUB SLT ISZERO PUSH2 0xBBB JUMPI PUSH1 0x0 DUP1 REVERT JUMPDEST PUSH2 0xBC4 DUP5 PUSH2 0xB60 JUMP JUMPDEST SWAP3 POP PUSH2 0xBD2 PUSH1 0x20 DUP6 ADD PUSH2 0xB60 JUMP JUMPDEST SWAP2 POP PUSH1 0x40 DUP5 ADD CALLDATALOAD SWAP1 POP SWAP3 POP SWAP3 POP SWAP3 JUMP JUMPDEST PUSH1 0x0 PUSH1 0x20 DUP3 DUP5 SUB SLT ISZERO PUSH2 0xBF4 JUMPI PUSH1 0x0 DUP1 REVERT JUMPDEST POP CALLDATALOAD SWAP2 SWAP1 POP JUMP JUMPDEST PUSH1 0x0 PUSH1 0x20 DUP3 DUP5 SUB SLT ISZERO PUSH2 0xC0D JUMPI PUSH1 0x0 DUP1 REVERT JUMPDEST PUSH2 0xC16 DUP3 PUSH2 0xB60 JUMP JUMPDEST SWAP4 SWAP3 POP POP POP JUMP JUMPDEST PUSH1 0x0 DUP1 PUSH1 0x40 DUP4 DUP6 SUB SLT ISZERO PUSH2 0xC30 JUMPI PUSH1 0x0 DUP1 REVERT JUMPDEST PUSH2 0xC39 DUP4 PUSH2 0xB60 JUMP JUMPDEST SWAP2 POP PUSH2 0xC47 PUSH1 0x20 DUP5 ADD PUSH2 0xB60 JUMP JUMPDEST SWAP1 POP SWAP3 POP SWAP3 SWAP1 POP JUMP JUMPDEST PUSH1 0x1 DUP2 DUP2 SHR SWAP1 DUP3 AND DUP1 PUSH2 0xC64 JUMPI PUSH1 0x7F DUP3 AND SWAP2 POP JUMPDEST PUSH1 0x20 DUP3 LT DUP2 SUB PUSH2 0xC84 JUMPI PUSH4 0x4E487B71 PUSH1 0xE0 SHL PUSH1 0x0 MSTORE PUSH1 0x22 PUSH1 0x4 MSTORE PUSH1 0x24 PUSH1 0x0 REVERT JUMPDEST POP SWAP2 SWAP1 POP JUMP JUMPDEST PUSH4 0x4E487B71 PUSH1 0xE0 SHL PUSH1 0x0 MSTORE PUSH1 0x11 PUSH1 0x4 MSTORE PUSH1 0x24 PUSH1 0x0 REVERT JUMPDEST DUP2 DUP2 SUB DUP2 DUP2 GT ISZERO PUSH2 0x3CB JUMPI PUSH2 0x3CB PUSH2 0xC8A JUMP JUMPDEST DUP1 DUP3 ADD DUP1 DUP3 GT ISZERO PUSH2 0x3CB JUMPI PUSH2 0x3CB PUSH2 0xC8A JUMP JUMPDEST PUSH1 0x0 PUSH1 0x1 DUP3 ADD PUSH2 0xCD8 JUMPI PUSH2 0xCD8 PUSH2 0xC8A JUMP JUMPDEST POP PUSH1 0x1 ADD SWAP1 JUMP JUMPDEST DUP1 DUP3 MUL DUP2 ISZERO DUP3 DUP3 DIV DUP5 EQ OR PUSH2 0x3CB JUMPI PUSH2 0x3CB PUSH2 0xC8A JUMP JUMPDEST PUSH1 0x0 DUP3 PUSH2 0xD13 JUMPI PUSH4 0x4E487B71 PUSH1 0xE0 SHL PUSH1 0x0 MSTORE PUSH1 0x12 PUSH1 0x4 MSTORE PUSH1 0x24 PUSH1 0x0 REVERT JUMPDEST POP DIV SWAP1 JUMP INVALID LOG2 PUSH5 0x6970667358 0x22 SLT KECCAK256 0xD4 SELFDESTRUCT CREATE2 SHL EXTCODECOPY 0x1F LOG0 JUMPDEST PUSH14 0x9AE77AE24F56C85D8D5495A3B4E1 0xBC SLOAD PUSH3 0xE4F0FE DUP16 0xC6 0xE7 PUSH5 0x736F6C6343 STOP ADDMOD SGT STOP CALLER "},"methodIdentifiers":{"BOOST_FACTOR()":"9b4cf2c6","MAX_BOOST()":"315865df","allowance(address,address)":"dd62ed3e","approve(address,uint256)":"095ea7b3","balanceOf(address)":"70a08231","baseMarketCap()":"9a4897e4","burn(uint256)":"42966c68","burnTransactionCount()":"67e8a397","calculateBoostFromBurn(uint256)":"7073efe1","currentBoostMultiplier()":"5b6e86ce","decimals()":"313ce567","getBoostPercentage()":"9fda4b55","getBurnedPercentage()":"b2e518ad","getCurrentMarketCap()":"bab96a8c","getRemainingSupplyPercentage()":"4694e746","getTokenStats()":"097cd9bf","name()":"06fdde03","symbol()":"95d89b41","totalBurned()":"d89135cd","totalSupply()":"18160ddd","transfer(address,uint256)":"a9059cbb","transferFrom(address,address,uint256)":"23b872dd","userBurnedAmount(address)":"472700cd"}}}}}