{
  "_format": "hh-sol-artifact-1",
  "contractName": "BurnBoostToken",
  "sourceName": "contracts/BurnBoostToken.sol",
  "abi": [
    {
      "inputs": [
        {
          "internalType": "string",
          "name": "_name",
          "type": "string"
        },
        {
          "internalType": "string",
          "name": "_symbol",
          "type": "string"
        },
        {
          "internalType": "uint256",
          "name": "_supply",
          "type": "uint256"
        },
        {
          "internalType": "uint256",
          "name": "_baseMarketCap",
          "type": "uint256"
        }
      ],
      "stateMutability": "nonpayable",
      "type": "constructor"
    },
    {
      "anonymous": false,
      "inputs": [
        {
          "indexed": true,
          "internalType": "address",
          "name": "owner",
          "type": "address"
        },
        {
          "indexed": true,
          "internalType": "address",
          "name": "spender",
          "type": "address"
        },
        {
          "indexed": false,
          "internalType": "uint256",
          "name": "value",
          "type": "uint256"
        }
      ],
      "name": "Approval",
      "type": "event"
    },
    {
      "anonymous": false,
      "inputs": [
        {
          "indexed": false,
          "internalType": "uint256",
          "name": "oldMultiplier",
          "type": "uint256"
        },
        {
          "indexed": false,
          "internalType": "uint256",
          "name": "newMultiplier",
          "type": "uint256"
        },
        {
          "indexed": false,
          "internalType": "uint256",
          "name": "percentageBurned",
          "type": "uint256"
        }
      ],
      "name": "MarketCapBoosted",
      "type": "event"
    },
    {
      "anonymous": false,
      "inputs": [
        {
          "indexed": true,
          "internalType": "address",
          "name": "burner",
          "type": "address"
        },
        {
          "indexed": false,
          "internalType": "uint256",
          "name": "amount",
          "type": "uint256"
        },
        {
          "indexed": false,
          "internalType": "uint256",
          "name": "newMarketCapMultiplier",
          "type": "uint256"
        }
      ],
      "name": "TokensBurned",
      "type": "event"
    },
    {
      "anonymous": false,
      "inputs": [
        {
          "indexed": true,
          "internalType": "address",
          "name": "from",
          "type": "address"
        },
        {
          "indexed": true,
          "internalType": "address",
          "name": "to",
          "type": "address"
        },
        {
          "indexed": false,
          "internalType": "uint256",
          "name": "value",
          "type": "uint256"
        }
      ],
      "name": "Transfer",
      "type": "event"
    },
    {
      "inputs": [],
      "name": "BOOST_FACTOR",
      "outputs": [
        {
          "internalType": "uint256",
          "name": "",
          "type": "uint256"
        }
      ],
      "stateMutability": "view",
      "type": "function"
    },
    {
      "inputs": [],
      "name": "MAX_BOOST",
      "outputs": [
        {
          "internalType": "uint256",
          "name": "",
          "type": "uint256"
        }
      ],
      "stateMutability": "view",
      "type": "function"
    },
    {
      "inputs": [
        {
          "internalType": "address",
          "name": "owner",
          "type": "address"
        },
        {
          "internalType": "address",
          "name": "spender",
          "type": "address"
        }
      ],
      "name": "allowance",
      "outputs": [
        {
          "internalType": "uint256",
          "name": "",
          "type": "uint256"
        }
      ],
      "stateMutability": "view",
      "type": "function"
    },
    {
      "inputs": [
        {
          "internalType": "address",
          "name": "spender",
          "type": "address"
        },
        {
          "internalType": "uint256",
          "name": "amount",
          "type": "uint256"
        }
      ],
      "name": "approve",
      "outputs": [
        {
          "internalType": "bool",
          "name": "",
          "type": "bool"
        }
      ],
      "stateMutability": "nonpayable",
      "type": "function"
    },
    {
      "inputs": [
        {
          "internalType": "address",
          "name": "account",
          "type": "address"
        }
      ],
      "name": "balanceOf",
      "outputs": [
        {
          "internalType": "uint256",
          "name": "",
          "type": "uint256"
        }
      ],
      "stateMutability": "view",
      "type": "function"
    },
    {
      "inputs": [],
      "name": "baseMarketCap",
      "outputs": [
        {
          "internalType": "uint256",
          "name": "",
          "type": "uint256"
        }
      ],
      "stateMutability": "view",
      "type": "function"
    },
    {
      "inputs": [
        {
          "internalType": "uint256",
          "name": "amount",
          "type": "uint256"
        }
      ],
      "name": "burn",
      "outputs": [
        {
          "internalType": "bool",
          "name": "",
          "type": "bool"
        }
      ],
      "stateMutability": "nonpayable",
      "type": "function"
    },
    {
      "inputs": [],
      "name": "burnTransactionCount",
      "outputs": [
        {
          "internalType": "uint256",
          "name": "",
          "type": "uint256"
        }
      ],
      "stateMutability": "view",
      "type": "function"
    },
    {
      "inputs": [
        {
          "internalType": "uint256",
          "name": "burnAmount",
          "type": "uint256"
        }
      ],
      "name": "calculateBoostFromBurn",
      "outputs": [
        {
          "internalType": "uint256",
          "name": "newBoostPercentage",
          "type": "uint256"
        }
      ],
      "stateMutability": "view",
      "type": "function"
    },
    {
      "inputs": [],
      "name": "currentBoostMultiplier",
      "outputs": [
        {
          "internalType": "uint256",
          "name": "",
          "type": "uint256"
        }
      ],
      "stateMutability": "view",
      "type": "function"
    },
    {
      "inputs": [],
      "name": "decimals",
      "outputs": [
        {
          "internalType": "uint8",
          "name": "",
          "type": "uint8"
        }
      ],
      "stateMutability": "view",
      "type": "function"
    },
    {
      "inputs": [],
      "name": "getBoostPercentage",
      "outputs": [
        {
          "internalType": "uint256",
          "name": "",
          "type": "uint256"
        }
      ],
      "stateMutability": "view",
      "type": "function"
    },
    {
      "inputs": [],
      "name": "getBurnedPercentage",
      "outputs": [
        {
          "internalType": "uint256",
          "name": "",
          "type": "uint256"
        }
      ],
      "stateMutability": "view",
      "type": "function"
    },
    {
      "inputs": [],
      "name": "getCurrentMarketCap",
      "outputs": [
        {
          "internalType": "uint256",
          "name": "",
          "type": "uint256"
        }
      ],
      "stateMutability": "view",
      "type": "function"
    },
    {
      "inputs": [],
      "name": "getRemainingSupplyPercentage",
      "outputs": [
        {
          "internalType": "uint256",
          "name": "",
          "type": "uint256"
        }
      ],
      "stateMutability": "view",
      "type": "function"
    },
    {
      "inputs": [],
      "name": "getTokenStats",
      "outputs": [
        {
          "internalType": "uint256",
          "name": "initialSupply",
          "type": "uint256"
        },
        {
          "internalType": "uint256",
          "name": "currentSupply",
          "type": "uint256"
        },
        {
          "internalType": "uint256",
          "name": "burned",
          "type": "uint256"
        },
        {
          "internalType": "uint256",
          "name": "burnedPercentage",
          "type": "uint256"
        },
        {
          "internalType": "uint256",
          "name": "marketCap",
          "type": "uint256"
        },
        {
          "internalType": "uint256",
          "name": "boostPercentage",
          "type": "uint256"
        },
        {
          "internalType": "uint256",
          "name": "burnTxCount",
          "type": "uint256"
        }
      ],
      "stateMutability": "view",
      "type": "function"
    },
    {
      "inputs": [],
      "name": "name",
      "outputs": [
        {
          "internalType": "string",
          "name": "",
          "type": "string"
        }
      ],
      "stateMutability": "view",
      "type": "function"
    },
    {
      "inputs": [],
      "name": "symbol",
      "outputs": [
        {
          "internalType": "string",
          "name": "",
          "type": "string"
        }
      ],
      "stateMutability": "view",
      "type": "function"
    },
    {
      "inputs": [],
      "name": "totalBurned",
      "outputs": [
        {
          "internalType": "uint256",
          "name": "",
          "type": "uint256"
        }
      ],
      "stateMutability": "view",
      "type": "function"
    },
    {
      "inputs": [],
      "name": "totalSupply",
      "outputs": [
        {
          "internalType": "uint256",
          "name": "",
          "type": "uint256"
        }
      ],
      "stateMutability": "view",
      "type": "function"
    },
    {
      "inputs": [
        {
          "internalType": "address",
          "name": "recipient",
          "type": "address"
        },
        {
          "internalType": "uint256",
          "name": "amount",
          "type": "uint256"
        }
      ],
      "name": "transfer",
      "outputs": [
        {
          "internalType": "bool",
          "name": "",
          "type": "bool"
        }
      ],
      "stateMutability": "nonpayable",
      "type": "function"
    },
    {
      "inputs": [
        {
          "internalType": "address",
          "name": "sender",
          "type": "address"
        },
        {
          "internalType": "address",
          "name": "recipient",
          "type": "address"
        },
        {
          "internalType": "uint256",
          "name": "amount",
          "type": "uint256"
        }
      ],
      "name": "transferFrom",
      "outputs": [
        {
          "internalType": "bool",
          "name": "",
          "type": "bool"
        }
      ],
      "stateMutability": "nonpayable",
      "type": "function"
    },
    {
      "inputs": [
        {
          "internalType": "address",
          "name": "",
          "type": "address"
        }
      ],
      "name": "userBurnedAmount",
      "outputs": [
        {
          "internalType": "uint256",
          "name": "",
          "type": "uint256"
        }
      ],
      "stateMutability": "view",
      "type": "function"
    }
  ],
  "bytecode": "0x60806040523480156200001157600080fd5b506040516200121c3803806200121c8339810160408190526200003491620001a5565b6005620000428582620002ae565b506006620000518482620002ae565b506007805460ff191660129081179091556200006f90600a6200048f565b6200007b9083620004a4565b6002819055600381905533600081815260208181526040808320859055600886905561271060095551938452919290917fddf252ad1be2c89b69c2b068fc378daa952ba7f163c4a11628f55a4df523b3ef910160405180910390a350505050620004be565b634e487b7160e01b600052604160045260246000fd5b600082601f8301126200010857600080fd5b81516001600160401b0380821115620001255762000125620000e0565b604051601f8301601f19908116603f01168101908282118183101715620001505762000150620000e0565b816040528381526020925086838588010111156200016d57600080fd5b600091505b8382101562000191578582018301518183018401529082019062000172565b600093810190920192909252949350505050565b60008060008060808587031215620001bc57600080fd5b84516001600160401b0380821115620001d457600080fd5b620001e288838901620000f6565b95506020870151915080821115620001f957600080fd5b506200020887828801620000f6565b604087015160609097015195989097509350505050565b600181811c908216806200023457607f821691505b6020821081036200025557634e487b7160e01b600052602260045260246000fd5b50919050565b601f821115620002a957600081815260208120601f850160051c81016020861015620002845750805b601f850160051c820191505b81811015620002a55782815560010162000290565b5050505b505050565b81516001600160401b03811115620002ca57620002ca620000e0565b620002e281620002db84546200021f565b846200025b565b602080601f8311600181146200031a5760008415620003015750858301515b600019600386901b1c1916600185901b178555620002a5565b600085815260208120601f198616915b828110156200034b578886015182559484019460019091019084016200032a565b50858210156200036a5787850151600019600388901b60f8161c191681555b5050505050600190811b01905550565b634e487b7160e01b600052601160045260246000fd5b600181815b80851115620003d1578160001904821115620003b557620003b56200037a565b80851615620003c357918102915b93841c939080029062000395565b509250929050565b600082620003ea5750600162000489565b81620003f95750600062000489565b81600181146200041257600281146200041d576200043d565b600191505062000489565b60ff8411156200043157620004316200037a565b50506001821b62000489565b5060208310610133831016604e8410600b841016171562000462575081810a62000489565b6200046e838362000390565b80600019048211156200048557620004856200037a565b0290505b92915050565b60006200049d8383620003d9565b9392505050565b80820281158282048414176200048957620004896200037a565b610d4e80620004ce6000396000f3fe608060405234801561001057600080fd5b506004361061014d5760003560e01c806367e8a397116100c35780639fda4b551161007c5780639fda4b55146102bf578063a9059cbb146102c7578063b2e518ad146102da578063bab96a8c146102e2578063d89135cd146102ea578063dd62ed3e146102f357600080fd5b806367e8a397146102615780637073efe11461026a57806370a082311461027d57806395d89b41146102a65780639a4897e4146102ae5780639b4cf2c6146102b757600080fd5b8063313ce56711610115578063313ce567146101f5578063315865df1461021457806342966c681461021d5780634694e74614610230578063472700cd146102385780635b6e86ce1461025857600080fd5b806306fdde0314610152578063095ea7b314610170578063097cd9bf1461019357806318160ddd146101d057806323b872dd146101e2575b600080fd5b61015a61032c565b6040516101679190610b12565b60405180910390f35b61018361017e366004610b7c565b6103ba565b6040519015158152602001610167565b61019b6103d1565b604080519788526020880196909652948601939093526060850191909152608084015260a083015260c082015260e001610167565b6002545b604051908152602001610167565b6101836101f0366004610ba6565b610416565b6007546102029060ff1681565b60405160ff9091168152602001610167565b6101d461138881565b61018361022b366004610be2565b6104ca565b6101d46106f8565b6101d4610246366004610bfb565b600a6020526000908152604090205481565b6101d460095481565b6101d4600b5481565b6101d4610278366004610be2565b61072b565b6101d461028b366004610bfb565b6001600160a01b031660009081526020819052604090205490565b61015a61078f565b6101d460085481565b6101d4600a81565b6101d461079c565b6101836102d5366004610b7c565b6107ae565b6101d46107bb565b6101d46107df565b6101d460045481565b6101d4610301366004610c1d565b6001600160a01b03918216600090815260016020908152604080832093909416825291909152205490565b6005805461033990610c50565b80601f016020809104026020016040519081016040528092919081815260200182805461036590610c50565b80156103b25780601f10610387576101008083540402835291602001916103b2565b820191906000526020600020905b81548152906001019060200180831161039557829003601f168201915b505050505081565b60006103c73384846107f4565b5060015b92915050565b60008060008060008060006003546002546004546103ed6107bb565b6103f56107df565b6103fd61079c565b600b54959d949c50929a50909850965094509092509050565b6001600160a01b0383166000908152600160209081526040808320338452909152812054828110156104a05760405162461bcd60e51b815260206004820152602860248201527f45524332303a207472616e7366657220616d6f756e74206578636565647320616044820152676c6c6f77616e636560c01b60648201526084015b60405180910390fd5b6104ab858585610901565b6104bf85336104ba8685610ca0565b6107f4565b506001949350505050565b60008082116105265760405162461bcd60e51b815260206004820152602260248201527f4275726e20616d6f756e74206d7573742062652067726561746572207468616e604482015261020360f41b6064820152608401610497565b336000908152602081905260409020548211156105855760405162461bcd60e51b815260206004820152601c60248201527f496e73756666696369656e742062616c616e636520746f206275726e000000006044820152606401610497565b33600090815260208190526040812080548492906105a4908490610ca0565b9250508190555081600260008282546105bd9190610ca0565b9250508190555081600460008282546105d69190610cb3565b9091555050336000908152600a6020526040812080548492906105fa908490610cb3565b9091555050600b805490600061060f83610cc6565b909155505060095461061f610ac9565b60405183815260009033907fddf252ad1be2c89b69c2b068fc378daa952ba7f163c4a11628f55a4df523b3ef9060200160405180910390a360095460405133917fccbea4088a3b7ae9ca2d15fab9a9742a4075b4d7247768a1eecea917565aba009161069391878252602082015260400190565b60405180910390a260095481146103c7577faac3115524b9cb16ee3b0d706d5115e1bd7f143553124cb66791b7f5e65c9feb816009546106d16107bb565b6040805193845260208401929092529082015260600160405180910390a150600192915050565b600060035460000361070a5750600090565b60035460025461071c90612710610cdf565b6107269190610cf6565b905090565b6000808260045461073c9190610cb3565b90506000600354826127106107519190610cdf565b61075b9190610cf6565b90506000606461076c600a84610cdf565b6107769190610cf6565b905061138881111561078757506113885b949350505050565b6006805461033990610c50565b60006127106009546107269190610ca0565b60006103c7338484610901565b60006003546000036107cd5750600090565b60035460045461071c90612710610cdf565b600061271060095460085461071c9190610cdf565b6001600160a01b03831661084a5760405162461bcd60e51b815260206004820181905260248201527f45524332303a20617070726f76652066726f6d207a65726f20616464726573736044820152606401610497565b6001600160a01b0382166108a05760405162461bcd60e51b815260206004820152601e60248201527f45524332303a20617070726f766520746f207a65726f206164647265737300006044820152606401610497565b6001600160a01b0383811660008181526001602090815260408083209487168084529482529182902085905590518481527f8c5be1e5ebec7d5bd14f71427d1e84f3dd0314c0f7b2291e5b200ac8c7c3b925910160405180910390a3505050565b6001600160a01b0383166109615760405162461bcd60e51b815260206004820152602160248201527f45524332303a207472616e736665722066726f6d207a65726f206164647265736044820152607360f81b6064820152608401610497565b6001600160a01b0382166109b75760405162461bcd60e51b815260206004820152601f60248201527f45524332303a207472616e7366657220746f207a65726f2061646472657373006044820152606401610497565b6001600160a01b03831660009081526020819052604090205481811015610a2f5760405162461bcd60e51b815260206004820152602660248201527f45524332303a207472616e7366657220616d6f756e7420657863656564732062604482015265616c616e636560d01b6064820152608401610497565b610a398282610ca0565b6001600160a01b038086166000908152602081905260408082209390935590851681529081208054849290610a6f908490610cb3565b92505081905550826001600160a01b0316846001600160a01b03167fddf252ad1be2c89b69c2b068fc378daa952ba7f163c4a11628f55a4df523b3ef84604051610abb91815260200190565b60405180910390a350505050565b6000610ad36107bb565b905060006064610ae4600a84610cdf565b610aee9190610cf6565b9050611388811115610aff57506113885b610b0b81612710610cb3565b6009555050565b600060208083528351808285015260005b81811015610b3f57858101830151858201604001528201610b23565b506000604082860101526040601f19601f8301168501019250505092915050565b80356001600160a01b0381168114610b7757600080fd5b919050565b60008060408385031215610b8f57600080fd5b610b9883610b60565b946020939093013593505050565b600080600060608486031215610bbb57600080fd5b610bc484610b60565b9250610bd260208501610b60565b9150604084013590509250925092565b600060208284031215610bf457600080fd5b5035919050565b600060208284031215610c0d57600080fd5b610c1682610b60565b9392505050565b60008060408385031215610c3057600080fd5b610c3983610b60565b9150610c4760208401610b60565b90509250929050565b600181811c90821680610c6457607f821691505b602082108103610c8457634e487b7160e01b600052602260045260246000fd5b50919050565b634e487b7160e01b600052601160045260246000fd5b818103818111156103cb576103cb610c8a565b808201808211156103cb576103cb610c8a565b600060018201610cd857610cd8610c8a565b5060010190565b80820281158282048414176103cb576103cb610c8a565b600082610d1357634e487b7160e01b600052601260045260246000fd5b50049056fea2646970667358221220d4fff51b3c1fa05b6d9ae77ae24f56c85d8d5495a3b4e1bc5462e4f0fe8fc6e764736f6c63430008130033",
  "linkReferences": {},
  "deployedLinkReferences": {}
}